{
  "_format": "hh-sol-artifact-1",
  "contractName": "NFT",
  "sourceName": "contracts/NFT.sol",
  "abi": [
    {
      "inputs": [
        {
          "internalType": "address",
          "name": "ecommerceAddress",
          "type": "address"
        }
      ],
      "stateMutability": "nonpayable",
      "type": "constructor"
    },
    {
      "inputs": [],
      "name": "NFT__NotAManufacturer",
      "type": "error"
    },
    {
      "anonymous": false,
      "inputs": [
        {
          "indexed": true,
          "internalType": "address",
          "name": "owner",
          "type": "address"
        },
        {
          "indexed": true,
          "internalType": "address",
          "name": "approved",
          "type": "address"
        },
        {
          "indexed": true,
          "internalType": "uint256",
          "name": "tokenId",
          "type": "uint256"
        }
      ],
      "name": "Approval",
      "type": "event"
    },
    {
      "anonymous": false,
      "inputs": [
        {
          "indexed": true,
          "internalType": "address",
          "name": "owner",
          "type": "address"
        },
        {
          "indexed": true,
          "internalType": "address",
          "name": "operator",
          "type": "address"
        },
        {
          "indexed": false,
          "internalType": "bool",
          "name": "approved",
          "type": "bool"
        }
      ],
      "name": "ApprovalForAll",
      "type": "event"
    },
    {
      "anonymous": false,
      "inputs": [
        {
          "indexed": true,
          "internalType": "address",
          "name": "from",
          "type": "address"
        },
        {
          "indexed": true,
          "internalType": "address",
          "name": "to",
          "type": "address"
        },
        {
          "indexed": true,
          "internalType": "uint256",
          "name": "tokenId",
          "type": "uint256"
        }
      ],
      "name": "Transfer",
      "type": "event"
    },
    {
      "inputs": [
        {
          "internalType": "address",
          "name": "to",
          "type": "address"
        },
        {
          "internalType": "uint256",
          "name": "tokenId",
          "type": "uint256"
        }
      ],
      "name": "approve",
      "outputs": [],
      "stateMutability": "nonpayable",
      "type": "function"
    },
    {
      "inputs": [
        {
          "internalType": "address",
          "name": "owner",
          "type": "address"
        }
      ],
      "name": "balanceOf",
      "outputs": [
        {
          "internalType": "uint256",
          "name": "",
          "type": "uint256"
        }
      ],
      "stateMutability": "view",
      "type": "function"
    },
    {
      "inputs": [
        {
          "internalType": "uint256",
          "name": "tokenId",
          "type": "uint256"
        }
      ],
      "name": "getApproved",
      "outputs": [
        {
          "internalType": "address",
          "name": "",
          "type": "address"
        }
      ],
      "stateMutability": "view",
      "type": "function"
    },
    {
      "inputs": [
        {
          "internalType": "address",
          "name": "owner",
          "type": "address"
        },
        {
          "internalType": "address",
          "name": "operator",
          "type": "address"
        }
      ],
      "name": "isApprovedForAll",
      "outputs": [
        {
          "internalType": "bool",
          "name": "",
          "type": "bool"
        }
      ],
      "stateMutability": "view",
      "type": "function"
    },
    {
      "inputs": [
        {
          "internalType": "string",
          "name": "tokenURI",
          "type": "string"
        }
      ],
      "name": "mintDEET",
      "outputs": [
        {
          "internalType": "uint256",
          "name": "",
          "type": "uint256"
        }
      ],
      "stateMutability": "nonpayable",
      "type": "function"
    },
    {
      "inputs": [],
      "name": "name",
      "outputs": [
        {
          "internalType": "string",
          "name": "",
          "type": "string"
        }
      ],
      "stateMutability": "view",
      "type": "function"
    },
    {
      "inputs": [
        {
          "internalType": "uint256",
          "name": "tokenId",
          "type": "uint256"
        }
      ],
      "name": "ownerOf",
      "outputs": [
        {
          "internalType": "address",
          "name": "",
          "type": "address"
        }
      ],
      "stateMutability": "view",
      "type": "function"
    },
    {
      "inputs": [
        {
          "internalType": "address",
          "name": "from",
          "type": "address"
        },
        {
          "internalType": "address",
          "name": "to",
          "type": "address"
        },
        {
          "internalType": "uint256",
          "name": "tokenId",
          "type": "uint256"
        }
      ],
      "name": "safeTransferFrom",
      "outputs": [],
      "stateMutability": "nonpayable",
      "type": "function"
    },
    {
      "inputs": [
        {
          "internalType": "address",
          "name": "from",
          "type": "address"
        },
        {
          "internalType": "address",
          "name": "to",
          "type": "address"
        },
        {
          "internalType": "uint256",
          "name": "tokenId",
          "type": "uint256"
        },
        {
          "internalType": "bytes",
          "name": "data",
          "type": "bytes"
        }
      ],
      "name": "safeTransferFrom",
      "outputs": [],
      "stateMutability": "nonpayable",
      "type": "function"
    },
    {
      "inputs": [
        {
          "internalType": "address",
          "name": "operator",
          "type": "address"
        },
        {
          "internalType": "bool",
          "name": "approved",
          "type": "bool"
        }
      ],
      "name": "setApprovalForAll",
      "outputs": [],
      "stateMutability": "nonpayable",
      "type": "function"
    },
    {
      "inputs": [
        {
          "internalType": "bytes4",
          "name": "interfaceId",
          "type": "bytes4"
        }
      ],
      "name": "supportsInterface",
      "outputs": [
        {
          "internalType": "bool",
          "name": "",
          "type": "bool"
        }
      ],
      "stateMutability": "view",
      "type": "function"
    },
    {
      "inputs": [],
      "name": "symbol",
      "outputs": [
        {
          "internalType": "string",
          "name": "",
          "type": "string"
        }
      ],
      "stateMutability": "view",
      "type": "function"
    },
    {
      "inputs": [
        {
          "internalType": "uint256",
          "name": "tokenId",
          "type": "uint256"
        }
      ],
      "name": "tokenURI",
      "outputs": [
        {
          "internalType": "string",
          "name": "",
          "type": "string"
        }
      ],
      "stateMutability": "view",
      "type": "function"
    },
    {
      "inputs": [
        {
          "internalType": "address",
          "name": "from",
          "type": "address"
        },
        {
          "internalType": "address",
          "name": "to",
          "type": "address"
        },
        {
          "internalType": "uint256",
          "name": "tokenId",
          "type": "uint256"
        }
      ],
      "name": "transferFrom",
      "outputs": [],
      "stateMutability": "nonpayable",
      "type": "function"
    }
  ],
  "bytecode": "0x60a06040523480156200001157600080fd5b50604051620030a3380380620030a3833981810160405281019062000037919062000152565b6040518060600160405280602a815260200162003079602a91396040518060400160405280600481526020017f44454554000000000000000000000000000000000000000000000000000000008152508160009081620000989190620003fe565b508060019081620000aa9190620003fe565b5050508073ffffffffffffffffffffffffffffffffffffffff1660808173ffffffffffffffffffffffffffffffffffffffff168152505050620004e5565b600080fd5b600073ffffffffffffffffffffffffffffffffffffffff82169050919050565b60006200011a82620000ed565b9050919050565b6200012c816200010d565b81146200013857600080fd5b50565b6000815190506200014c8162000121565b92915050565b6000602082840312156200016b576200016a620000e8565b5b60006200017b848285016200013b565b91505092915050565b600081519050919050565b7f4e487b7100000000000000000000000000000000000000000000000000000000600052604160045260246000fd5b7f4e487b7100000000000000000000000000000000000000000000000000000000600052602260045260246000fd5b600060028204905060018216806200020657607f821691505b6020821081036200021c576200021b620001be565b5b50919050565b60008190508160005260206000209050919050565b60006020601f8301049050919050565b600082821b905092915050565b600060088302620002867fffffffffffffffffffffffffffffffffffffffffffffffffffffffffffffffff8262000247565b62000292868362000247565b95508019841693508086168417925050509392505050565b6000819050919050565b6000819050919050565b6000620002df620002d9620002d384620002aa565b620002b4565b620002aa565b9050919050565b6000819050919050565b620002fb83620002be565b620003136200030a82620002e6565b84845462000254565b825550505050565b600090565b6200032a6200031b565b62000337818484620002f0565b505050565b5b818110156200035f576200035360008262000320565b6001810190506200033d565b5050565b601f821115620003ae57620003788162000222565b620003838462000237565b8101602085101562000393578190505b620003ab620003a28562000237565b8301826200033c565b50505b505050565b600082821c905092915050565b6000620003d360001984600802620003b3565b1980831691505092915050565b6000620003ee8383620003c0565b9150826002028217905092915050565b620004098262000184565b67ffffffffffffffff8111156200042557620004246200018f565b5b620004318254620001ed565b6200043e82828562000363565b600060209050601f83116001811462000476576000841562000461578287015190505b6200046d8582620003e0565b865550620004dd565b601f198416620004868662000222565b60005b82811015620004b05784890151825560018201915060208501945060208101905062000489565b86831015620004d05784890151620004cc601f891682620003c0565b8355505b6001600288020188555050505b505050505050565b608051612b71620005086000396000818161082b01526108fe0152612b716000f3fe608060405234801561001057600080fd5b50600436106100ea5760003560e01c806370a082311161008c578063a22cb46511610066578063a22cb4651461026f578063b88d4fde1461028b578063c87b56dd146102a7578063e985e9c5146102d7576100ea565b806370a08231146101f157806395d89b4114610221578063a21aa07d1461023f576100ea565b8063095ea7b3116100c8578063095ea7b31461016d57806323b872dd1461018957806342842e0e146101a55780636352211e146101c1576100ea565b806301ffc9a7146100ef57806306fdde031461011f578063081812fc1461013d575b600080fd5b61010960048036038101906101049190611a31565b610307565b6040516101169190611a79565b60405180910390f35b6101276103e9565b6040516101349190611b24565b60405180910390f35b61015760048036038101906101529190611b7c565b61047b565b6040516101649190611bea565b60405180910390f35b61018760048036038101906101829190611c31565b6104c1565b005b6101a3600480360381019061019e9190611c71565b6105d8565b005b6101bf60048036038101906101ba9190611c71565b610638565b005b6101db60048036038101906101d69190611b7c565b610658565b6040516101e89190611bea565b60405180910390f35b61020b60048036038101906102069190611cc4565b6106de565b6040516102189190611d00565b60405180910390f35b610229610795565b6040516102369190611b24565b60405180910390f35b61025960048036038101906102549190611e50565b610827565b6040516102669190611d00565b60405180910390f35b61028960048036038101906102849190611ec5565b610959565b005b6102a560048036038101906102a09190611fa6565b61096f565b005b6102c160048036038101906102bc9190611b7c565b6109d1565b6040516102ce9190611b24565b60405180910390f35b6102f160048036038101906102ec9190612029565b610ae3565b6040516102fe9190611a79565b60405180910390f35b60007f80ac58cd000000000000000000000000000000000000000000000000000000007bffffffffffffffffffffffffffffffffffffffffffffffffffffffff1916827bffffffffffffffffffffffffffffffffffffffffffffffffffffffff191614806103d257507f5b5e139f000000000000000000000000000000000000000000000000000000007bffffffffffffffffffffffffffffffffffffffffffffffffffffffff1916827bffffffffffffffffffffffffffffffffffffffffffffffffffffffff1916145b806103e257506103e182610b77565b5b9050919050565b6060600080546103f890612098565b80601f016020809104026020016040519081016040528092919081815260200182805461042490612098565b80156104715780601f1061044657610100808354040283529160200191610471565b820191906000526020600020905b81548152906001019060200180831161045457829003601f168201915b5050505050905090565b600061048682610be1565b6004600083815260200190815260200160002060009054906101000a900473ffffffffffffffffffffffffffffffffffffffff169050919050565b60006104cc82610658565b90508073ffffffffffffffffffffffffffffffffffffffff168373ffffffffffffffffffffffffffffffffffffffff160361053c576040517f08c379a00000000000000000000000000000000000000000000000000000000081526004016105339061213b565b60405180910390fd5b8073ffffffffffffffffffffffffffffffffffffffff1661055b610c2c565b73ffffffffffffffffffffffffffffffffffffffff16148061058a575061058981610584610c2c565b610ae3565b5b6105c9576040517f08c379a00000000000000000000000000000000000000000000000000000000081526004016105c0906121cd565b60405180910390fd5b6105d38383610c34565b505050565b6105e96105e3610c2c565b82610ced565b610628576040517f08c379a000000000000000000000000000000000000000000000000000000000815260040161061f9061225f565b60405180910390fd5b610633838383610d82565b505050565b6106538383836040518060200160405280600081525061096f565b505050565b6000806106648361107b565b9050600073ffffffffffffffffffffffffffffffffffffffff168173ffffffffffffffffffffffffffffffffffffffff16036106d5576040517f08c379a00000000000000000000000000000000000000000000000000000000081526004016106cc906122cb565b60405180910390fd5b80915050919050565b60008073ffffffffffffffffffffffffffffffffffffffff168273ffffffffffffffffffffffffffffffffffffffff160361074e576040517f08c379a00000000000000000000000000000000000000000000000000000000081526004016107459061235d565b60405180910390fd5b600360008373ffffffffffffffffffffffffffffffffffffffff1673ffffffffffffffffffffffffffffffffffffffff168152602001908152602001600020549050919050565b6060600180546107a490612098565b80601f01602080910402602001604051908101604052809291908181526020018280546107d090612098565b801561081d5780601f106107f25761010080835404028352916020019161081d565b820191906000526020600020905b81548152906001019060200180831161080057829003601f168201915b5050505050905090565b60007f000000000000000000000000000000000000000000000000000000000000000073ffffffffffffffffffffffffffffffffffffffff166317d4a491336040518263ffffffff1660e01b81526004016108829190611bea565b602060405180830381865afa15801561089f573d6000803e3d6000fd5b505050506040513d601f19601f820116820180604052508101906108c39190612392565b6108f9576040517f6770ee7100000000000000000000000000000000000000000000000000000000815260040160405180910390fd5b6109247f00000000000000000000000000000000000000000000000000000000000000006001610959565b600061093060076110b8565b905061093c60076110c6565b61094633826110dc565b61095081846112f9565b80915050919050565b61096b610964610c2c565b8383611366565b5050565b61098061097a610c2c565b83610ced565b6109bf576040517f08c379a00000000000000000000000000000000000000000000000000000000081526004016109b69061225f565b60405180910390fd5b6109cb848484846114d2565b50505050565b60606109dc82610be1565b60006006600084815260200190815260200160002080546109fc90612098565b80601f0160208091040260200160405190810160405280929190818152602001828054610a2890612098565b8015610a755780601f10610a4a57610100808354040283529160200191610a75565b820191906000526020600020905b815481529060010190602001808311610a5857829003601f168201915b505050505090506000610a8661152e565b90506000815103610a9b578192505050610ade565b600082511115610ad0578082604051602001610ab89291906123fb565b60405160208183030381529060405292505050610ade565b610ad984611545565b925050505b919050565b6000600560008473ffffffffffffffffffffffffffffffffffffffff1673ffffffffffffffffffffffffffffffffffffffff16815260200190815260200160002060008373ffffffffffffffffffffffffffffffffffffffff1673ffffffffffffffffffffffffffffffffffffffff16815260200190815260200160002060009054906101000a900460ff16905092915050565b60007f01ffc9a7000000000000000000000000000000000000000000000000000000007bffffffffffffffffffffffffffffffffffffffffffffffffffffffff1916827bffffffffffffffffffffffffffffffffffffffffffffffffffffffff1916149050919050565b610bea816115ad565b610c29576040517f08c379a0000000000000000000000000000000000000000000000000000000008152600401610c20906122cb565b60405180910390fd5b50565b600033905090565b816004600083815260200190815260200160002060006101000a81548173ffffffffffffffffffffffffffffffffffffffff021916908373ffffffffffffffffffffffffffffffffffffffff160217905550808273ffffffffffffffffffffffffffffffffffffffff16610ca783610658565b73ffffffffffffffffffffffffffffffffffffffff167f8c5be1e5ebec7d5bd14f71427d1e84f3dd0314c0f7b2291e5b200ac8c7c3b92560405160405180910390a45050565b600080610cf983610658565b90508073ffffffffffffffffffffffffffffffffffffffff168473ffffffffffffffffffffffffffffffffffffffff161480610d3b5750610d3a8185610ae3565b5b80610d7957508373ffffffffffffffffffffffffffffffffffffffff16610d618461047b565b73ffffffffffffffffffffffffffffffffffffffff16145b91505092915050565b8273ffffffffffffffffffffffffffffffffffffffff16610da282610658565b73ffffffffffffffffffffffffffffffffffffffff1614610df8576040517f08c379a0000000000000000000000000000000000000000000000000000000008152600401610def90612491565b60405180910390fd5b600073ffffffffffffffffffffffffffffffffffffffff168273ffffffffffffffffffffffffffffffffffffffff1603610e67576040517f08c379a0000000000000000000000000000000000000000000000000000000008152600401610e5e90612523565b60405180910390fd5b610e7483838360016115ee565b8273ffffffffffffffffffffffffffffffffffffffff16610e9482610658565b73ffffffffffffffffffffffffffffffffffffffff1614610eea576040517f08c379a0000000000000000000000000000000000000000000000000000000008152600401610ee190612491565b60405180910390fd5b6004600082815260200190815260200160002060006101000a81549073ffffffffffffffffffffffffffffffffffffffff02191690556001600360008573ffffffffffffffffffffffffffffffffffffffff1673ffffffffffffffffffffffffffffffffffffffff168152602001908152602001600020600082825403925050819055506001600360008473ffffffffffffffffffffffffffffffffffffffff1673ffffffffffffffffffffffffffffffffffffffff16815260200190815260200160002060008282540192505081905550816002600083815260200190815260200160002060006101000a81548173ffffffffffffffffffffffffffffffffffffffff021916908373ffffffffffffffffffffffffffffffffffffffff160217905550808273ffffffffffffffffffffffffffffffffffffffff168473ffffffffffffffffffffffffffffffffffffffff167fddf252ad1be2c89b69c2b068fc378daa952ba7f163c4a11628f55a4df523b3ef60405160405180910390a461107683838360016115f4565b505050565b60006002600083815260200190815260200160002060009054906101000a900473ffffffffffffffffffffffffffffffffffffffff169050919050565b600081600001549050919050565b6001816000016000828254019250508190555050565b600073ffffffffffffffffffffffffffffffffffffffff168273ffffffffffffffffffffffffffffffffffffffff160361114b576040517f08c379a00000000000000000000000000000000000000000000000000000000081526004016111429061258f565b60405180910390fd5b611154816115ad565b15611194576040517f08c379a000000000000000000000000000000000000000000000000000000000815260040161118b906125fb565b60405180910390fd5b6111a26000838360016115ee565b6111ab816115ad565b156111eb576040517f08c379a00000000000000000000000000000000000000000000000000000000081526004016111e2906125fb565b60405180910390fd5b6001600360008473ffffffffffffffffffffffffffffffffffffffff1673ffffffffffffffffffffffffffffffffffffffff16815260200190815260200160002060008282540192505081905550816002600083815260200190815260200160002060006101000a81548173ffffffffffffffffffffffffffffffffffffffff021916908373ffffffffffffffffffffffffffffffffffffffff160217905550808273ffffffffffffffffffffffffffffffffffffffff16600073ffffffffffffffffffffffffffffffffffffffff167fddf252ad1be2c89b69c2b068fc378daa952ba7f163c4a11628f55a4df523b3ef60405160405180910390a46112f56000838360016115f4565b5050565b611302826115ad565b611341576040517f08c379a00000000000000000000000000000000000000000000000000000000081526004016113389061268d565b60405180910390fd5b806006600084815260200190815260200160002090816113619190612859565b505050565b8173ffffffffffffffffffffffffffffffffffffffff168373ffffffffffffffffffffffffffffffffffffffff16036113d4576040517f08c379a00000000000000000000000000000000000000000000000000000000081526004016113cb90612977565b60405180910390fd5b80600560008573ffffffffffffffffffffffffffffffffffffffff1673ffffffffffffffffffffffffffffffffffffffff16815260200190815260200160002060008473ffffffffffffffffffffffffffffffffffffffff1673ffffffffffffffffffffffffffffffffffffffff16815260200190815260200160002060006101000a81548160ff0219169083151502179055508173ffffffffffffffffffffffffffffffffffffffff168373ffffffffffffffffffffffffffffffffffffffff167f17307eab39ab6107e8899845ad3d59bd9653f200f220920489ca2b5937696c31836040516114c59190611a79565b60405180910390a3505050565b6114dd848484610d82565b6114e9848484846115fa565b611528576040517f08c379a000000000000000000000000000000000000000000000000000000000815260040161151f90612a09565b60405180910390fd5b50505050565b606060405180602001604052806000815250905090565b606061155082610be1565b600061155a61152e565b9050600081511161157a57604051806020016040528060008152506115a5565b8061158484611781565b6040516020016115959291906123fb565b6040516020818303038152906040525b915050919050565b60008073ffffffffffffffffffffffffffffffffffffffff166115cf8361107b565b73ffffffffffffffffffffffffffffffffffffffff1614159050919050565b50505050565b50505050565b600061161b8473ffffffffffffffffffffffffffffffffffffffff1661184f565b15611774578373ffffffffffffffffffffffffffffffffffffffff1663150b7a02611644610c2c565b8786866040518563ffffffff1660e01b81526004016116669493929190612a7e565b6020604051808303816000875af19250505080156116a257506040513d601f19601f8201168201806040525081019061169f9190612adf565b60015b611724573d80600081146116d2576040519150601f19603f3d011682016040523d82523d6000602084013e6116d7565b606091505b50600081510361171c576040517f08c379a000000000000000000000000000000000000000000000000000000000815260040161171390612a09565b60405180910390fd5b805181602001fd5b63150b7a0260e01b7bffffffffffffffffffffffffffffffffffffffffffffffffffffffff1916817bffffffffffffffffffffffffffffffffffffffffffffffffffffffff191614915050611779565b600190505b949350505050565b60606000600161179084611872565b01905060008167ffffffffffffffff8111156117af576117ae611d25565b5b6040519080825280601f01601f1916602001820160405280156117e15781602001600182028036833780820191505090505b509050600082602001820190505b600115611844578080600190039150507f3031323334353637383961626364656600000000000000000000000000000000600a86061a8153600a858161183857611837612b0c565b5b049450600085036117ef575b819350505050919050565b6000808273ffffffffffffffffffffffffffffffffffffffff163b119050919050565b600080600090507a184f03e93ff9f4daa797ed6e38ed64bf6a1f01000000000000000083106118d0577a184f03e93ff9f4daa797ed6e38ed64bf6a1f01000000000000000083816118c6576118c5612b0c565b5b0492506040810190505b6d04ee2d6d415b85acef8100000000831061190d576d04ee2d6d415b85acef8100000000838161190357611902612b0c565b5b0492506020810190505b662386f26fc10000831061193c57662386f26fc10000838161193257611931612b0c565b5b0492506010810190505b6305f5e1008310611965576305f5e100838161195b5761195a612b0c565b5b0492506008810190505b612710831061198a5761271083816119805761197f612b0c565b5b0492506004810190505b606483106119ad57606483816119a3576119a2612b0c565b5b0492506002810190505b600a83106119bc576001810190505b80915050919050565b6000604051905090565b600080fd5b600080fd5b60007fffffffff0000000000000000000000000000000000000000000000000000000082169050919050565b611a0e816119d9565b8114611a1957600080fd5b50565b600081359050611a2b81611a05565b92915050565b600060208284031215611a4757611a466119cf565b5b6000611a5584828501611a1c565b91505092915050565b60008115159050919050565b611a7381611a5e565b82525050565b6000602082019050611a8e6000830184611a6a565b92915050565b600081519050919050565b600082825260208201905092915050565b60005b83811015611ace578082015181840152602081019050611ab3565b60008484015250505050565b6000601f19601f8301169050919050565b6000611af682611a94565b611b008185611a9f565b9350611b10818560208601611ab0565b611b1981611ada565b840191505092915050565b60006020820190508181036000830152611b3e8184611aeb565b905092915050565b6000819050919050565b611b5981611b46565b8114611b6457600080fd5b50565b600081359050611b7681611b50565b92915050565b600060208284031215611b9257611b916119cf565b5b6000611ba084828501611b67565b91505092915050565b600073ffffffffffffffffffffffffffffffffffffffff82169050919050565b6000611bd482611ba9565b9050919050565b611be481611bc9565b82525050565b6000602082019050611bff6000830184611bdb565b92915050565b611c0e81611bc9565b8114611c1957600080fd5b50565b600081359050611c2b81611c05565b92915050565b60008060408385031215611c4857611c476119cf565b5b6000611c5685828601611c1c565b9250506020611c6785828601611b67565b9150509250929050565b600080600060608486031215611c8a57611c896119cf565b5b6000611c9886828701611c1c565b9350506020611ca986828701611c1c565b9250506040611cba86828701611b67565b9150509250925092565b600060208284031215611cda57611cd96119cf565b5b6000611ce884828501611c1c565b91505092915050565b611cfa81611b46565b82525050565b6000602082019050611d156000830184611cf1565b92915050565b600080fd5b600080fd5b7f4e487b7100000000000000000000000000000000000000000000000000000000600052604160045260246000fd5b611d5d82611ada565b810181811067ffffffffffffffff82111715611d7c57611d7b611d25565b5b80604052505050565b6000611d8f6119c5565b9050611d9b8282611d54565b919050565b600067ffffffffffffffff821115611dbb57611dba611d25565b5b611dc482611ada565b9050602081019050919050565b82818337600083830152505050565b6000611df3611dee84611da0565b611d85565b905082815260208101848484011115611e0f57611e0e611d20565b5b611e1a848285611dd1565b509392505050565b600082601f830112611e3757611e36611d1b565b5b8135611e47848260208601611de0565b91505092915050565b600060208284031215611e6657611e656119cf565b5b600082013567ffffffffffffffff811115611e8457611e836119d4565b5b611e9084828501611e22565b91505092915050565b611ea281611a5e565b8114611ead57600080fd5b50565b600081359050611ebf81611e99565b92915050565b60008060408385031215611edc57611edb6119cf565b5b6000611eea85828601611c1c565b9250506020611efb85828601611eb0565b9150509250929050565b600067ffffffffffffffff821115611f2057611f1f611d25565b5b611f2982611ada565b9050602081019050919050565b6000611f49611f4484611f05565b611d85565b905082815260208101848484011115611f6557611f64611d20565b5b611f70848285611dd1565b509392505050565b600082601f830112611f8d57611f8c611d1b565b5b8135611f9d848260208601611f36565b91505092915050565b60008060008060808587031215611fc057611fbf6119cf565b5b6000611fce87828801611c1c565b9450506020611fdf87828801611c1c565b9350506040611ff087828801611b67565b925050606085013567ffffffffffffffff811115612011576120106119d4565b5b61201d87828801611f78565b91505092959194509250565b600080604083850312156120405761203f6119cf565b5b600061204e85828601611c1c565b925050602061205f85828601611c1c565b9150509250929050565b7f4e487b7100000000000000000000000000000000000000000000000000000000600052602260045260246000fd5b600060028204905060018216806120b057607f821691505b6020821081036120c3576120c2612069565b5b50919050565b7f4552433732313a20617070726f76616c20746f2063757272656e74206f776e6560008201527f7200000000000000000000000000000000000000000000000000000000000000602082015250565b6000612125602183611a9f565b9150612130826120c9565b604082019050919050565b6000602082019050818103600083015261215481612118565b9050919050565b7f4552433732313a20617070726f76652063616c6c6572206973206e6f7420746f60008201527f6b656e206f776e6572206f7220617070726f76656420666f7220616c6c000000602082015250565b60006121b7603d83611a9f565b91506121c28261215b565b604082019050919050565b600060208201905081810360008301526121e6816121aa565b9050919050565b7f4552433732313a2063616c6c6572206973206e6f7420746f6b656e206f776e6560008201527f72206f7220617070726f76656400000000000000000000000000000000000000602082015250565b6000612249602d83611a9f565b9150612254826121ed565b604082019050919050565b600060208201905081810360008301526122788161223c565b9050919050565b7f4552433732313a20696e76616c696420746f6b656e2049440000000000000000600082015250565b60006122b5601883611a9f565b91506122c08261227f565b602082019050919050565b600060208201905081810360008301526122e4816122a8565b9050919050565b7f4552433732313a2061646472657373207a65726f206973206e6f74206120766160008201527f6c6964206f776e65720000000000000000000000000000000000000000000000602082015250565b6000612347602983611a9f565b9150612352826122eb565b604082019050919050565b600060208201905081810360008301526123768161233a565b9050919050565b60008151905061238c81611e99565b92915050565b6000602082840312156123a8576123a76119cf565b5b60006123b68482850161237d565b91505092915050565b600081905092915050565b60006123d582611a94565b6123df81856123bf565b93506123ef818560208601611ab0565b80840191505092915050565b600061240782856123ca565b915061241382846123ca565b91508190509392505050565b7f4552433732313a207472616e736665722066726f6d20696e636f72726563742060008201527f6f776e6572000000000000000000000000000000000000000000000000000000602082015250565b600061247b602583611a9f565b91506124868261241f565b604082019050919050565b600060208201905081810360008301526124aa8161246e565b9050919050565b7f4552433732313a207472616e7366657220746f20746865207a65726f2061646460008201527f7265737300000000000000000000000000000000000000000000000000000000602082015250565b600061250d602483611a9f565b9150612518826124b1565b604082019050919050565b6000602082019050818103600083015261253c81612500565b9050919050565b7f4552433732313a206d696e7420746f20746865207a65726f2061646472657373600082015250565b6000612579602083611a9f565b915061258482612543565b602082019050919050565b600060208201905081810360008301526125a88161256c565b9050919050565b7f4552433732313a20746f6b656e20616c7265616479206d696e74656400000000600082015250565b60006125e5601c83611a9f565b91506125f0826125af565b602082019050919050565b60006020820190508181036000830152612614816125d8565b9050919050565b7f45524337323155524953746f726167653a2055524920736574206f66206e6f6e60008201527f6578697374656e7420746f6b656e000000000000000000000000000000000000602082015250565b6000612677602e83611a9f565b91506126828261261b565b604082019050919050565b600060208201905081810360008301526126a68161266a565b9050919050565b60008190508160005260206000209050919050565b60006020601f8301049050919050565b600082821b905092915050565b60006008830261270f7fffffffffffffffffffffffffffffffffffffffffffffffffffffffffffffffff826126d2565b61271986836126d2565b95508019841693508086168417925050509392505050565b6000819050919050565b600061275661275161274c84611b46565b612731565b611b46565b9050919050565b6000819050919050565b6127708361273b565b61278461277c8261275d565b8484546126df565b825550505050565b600090565b61279961278c565b6127a4818484612767565b505050565b5b818110156127c8576127bd600082612791565b6001810190506127aa565b5050565b601f82111561280d576127de816126ad565b6127e7846126c2565b810160208510156127f6578190505b61280a612802856126c2565b8301826127a9565b50505b505050565b600082821c905092915050565b600061283060001984600802612812565b1980831691505092915050565b6000612849838361281f565b9150826002028217905092915050565b61286282611a94565b67ffffffffffffffff81111561287b5761287a611d25565b5b6128858254612098565b6128908282856127cc565b600060209050601f8311600181146128c357600084156128b1578287015190505b6128bb858261283d565b865550612923565b601f1984166128d1866126ad565b60005b828110156128f9578489015182556001820191506020850194506020810190506128d4565b868310156129165784890151612912601f89168261281f565b8355505b6001600288020188555050505b505050505050565b7f4552433732313a20617070726f766520746f2063616c6c657200000000000000600082015250565b6000612961601983611a9f565b915061296c8261292b565b602082019050919050565b6000602082019050818103600083015261299081612954565b9050919050565b7f4552433732313a207472616e7366657220746f206e6f6e20455243373231526560008201527f63656976657220696d706c656d656e7465720000000000000000000000000000602082015250565b60006129f3603283611a9f565b91506129fe82612997565b604082019050919050565b60006020820190508181036000830152612a22816129e6565b9050919050565b600081519050919050565b600082825260208201905092915050565b6000612a5082612a29565b612a5a8185612a34565b9350612a6a818560208601611ab0565b612a7381611ada565b840191505092915050565b6000608082019050612a936000830187611bdb565b612aa06020830186611bdb565b612aad6040830185611cf1565b8181036060830152612abf8184612a45565b905095945050505050565b600081519050612ad981611a05565b92915050565b600060208284031215612af557612af46119cf565b5b6000612b0384828501612aca565b91505092915050565b7f4e487b7100000000000000000000000000000000000000000000000000000000600052601260045260246000fdfea264697066735822122060af23eec733c3a5baecbc8fb8debc5064f41fba00bf5cbd6ee77db07668b0a764736f6c63430008120033446563656e7472616c697a65642045636f6d6d65726365204e6f6e2d46756e6769626c6520546f6b656e",
  "linkReferences": {},
  "deployedLinkReferences": {}
}