{
  "address": "0x676474E80466f6286A82A238B683055464299869",
  "abi": [
    {
      "inputs": [],
      "stateMutability": "nonpayable",
      "type": "constructor"
    },
    {
      "inputs": [],
      "name": "Ecommerce__IncorrectAmountSent",
      "type": "error"
    },
    {
      "inputs": [],
      "name": "Ecommerce__ItemNotExisted",
      "type": "error"
    },
    {
      "inputs": [],
      "name": "Ecommerce__NotAnOwner",
      "type": "error"
    },
    {
      "inputs": [],
      "name": "Ecommerce__NotAnOwnerOfContract",
      "type": "error"
    },
    {
      "inputs": [],
      "name": "Ecommerce__UnsuccessfulEthTransfer",
      "type": "error"
    },
    {
      "inputs": [],
      "name": "Ecommerce__UserNotExisted",
      "type": "error"
    },
    {
      "inputs": [],
      "name": "Ecommerce__UserOrManufacturerAlreadyExists",
      "type": "error"
    },
    {
      "anonymous": false,
      "inputs": [
        {
          "indexed": true,
          "internalType": "uint256",
          "name": "tokenId",
          "type": "uint256"
        },
        {
          "indexed": true,
          "internalType": "address",
          "name": "buyer",
          "type": "address"
        },
        {
          "indexed": true,
          "internalType": "address",
          "name": "owner",
          "type": "address"
        },
        {
          "indexed": false,
          "internalType": "uint256",
          "name": "price",
          "type": "uint256"
        }
      ],
      "name": "ItemDidNotArriveToCustomer",
      "type": "event"
    },
    {
      "anonymous": false,
      "inputs": [
        {
          "indexed": true,
          "internalType": "uint256",
          "name": "tokenId",
          "type": "uint256"
        },
        {
          "indexed": true,
          "internalType": "address",
          "name": "buyer",
          "type": "address"
        },
        {
          "indexed": true,
          "internalType": "address",
          "name": "owner",
          "type": "address"
        },
        {
          "indexed": false,
          "internalType": "uint256",
          "name": "price",
          "type": "uint256"
        }
      ],
      "name": "ItemHasArrivedToUser",
      "type": "event"
    },
    {
      "anonymous": false,
      "inputs": [
        {
          "indexed": true,
          "internalType": "uint256",
          "name": "tokenId",
          "type": "uint256"
        },
        {
          "indexed": true,
          "internalType": "address",
          "name": "buyer",
          "type": "address"
        },
        {
          "indexed": true,
          "internalType": "address",
          "name": "owner",
          "type": "address"
        },
        {
          "indexed": false,
          "internalType": "uint256",
          "name": "price",
          "type": "uint256"
        }
      ],
      "name": "MarketItemMoveToPending",
      "type": "event"
    },
    {
      "anonymous": false,
      "inputs": [
        {
          "indexed": true,
          "internalType": "uint256",
          "name": "tokenId",
          "type": "uint256"
        }
      ],
      "name": "MarketItemRemoved",
      "type": "event"
    },
    {
      "anonymous": false,
      "inputs": [
        {
          "indexed": true,
          "internalType": "address",
          "name": "manufacturerAddress",
          "type": "address"
        }
      ],
      "name": "NewManufacturerCreated",
      "type": "event"
    },
    {
      "anonymous": false,
      "inputs": [
        {
          "indexed": true,
          "internalType": "uint256",
          "name": "tokenId",
          "type": "uint256"
        },
        {
          "indexed": true,
          "internalType": "address",
          "name": "nftContract",
          "type": "address"
        },
        {
          "indexed": true,
          "internalType": "address",
          "name": "owner",
          "type": "address"
        },
        {
          "indexed": false,
          "internalType": "uint256",
          "name": "price",
          "type": "uint256"
        }
      ],
      "name": "NewMarketItemListed",
      "type": "event"
    },
    {
      "anonymous": false,
      "inputs": [
        {
          "indexed": true,
          "internalType": "address",
          "name": "nftContract",
          "type": "address"
        },
        {
          "indexed": true,
          "internalType": "address",
          "name": "manufacturer",
          "type": "address"
        },
        {
          "indexed": true,
          "internalType": "uint256",
          "name": "tokenId",
          "type": "uint256"
        }
      ],
      "name": "NewNftMinted",
      "type": "event"
    },
    {
      "anonymous": false,
      "inputs": [
        {
          "indexed": true,
          "internalType": "address",
          "name": "userAddress",
          "type": "address"
        }
      ],
      "name": "NewUserCreated",
      "type": "event"
    },
    {
      "inputs": [
        {
          "internalType": "uint256",
          "name": "itemId",
          "type": "uint256"
        }
      ],
      "name": "confirmBuyMarketItem",
      "outputs": [],
      "stateMutability": "payable",
      "type": "function"
    },
    {
      "inputs": [
        {
          "internalType": "uint256",
          "name": "itemId",
          "type": "uint256"
        }
      ],
      "name": "confirmReceiveMarketItem",
      "outputs": [],
      "stateMutability": "nonpayable",
      "type": "function"
    },
    {
      "inputs": [],
      "name": "fetchListedItems",
      "outputs": [
        {
          "components": [
            {
              "internalType": "uint256",
              "name": "tokenId",
              "type": "uint256"
            },
            {
              "internalType": "address",
              "name": "nftContract",
              "type": "address"
            },
            {
              "internalType": "uint256",
              "name": "price",
              "type": "uint256"
            },
            {
              "internalType": "address payable",
              "name": "owner",
              "type": "address"
            },
            {
              "internalType": "bool",
              "name": "flag",
              "type": "bool"
            }
          ],
          "internalType": "struct Ecommerce.MarketItem[]",
          "name": "",
          "type": "tuple[]"
        }
      ],
      "stateMutability": "view",
      "type": "function"
    },
    {
      "inputs": [],
      "name": "fetchListingPrice",
      "outputs": [
        {
          "internalType": "uint256",
          "name": "",
          "type": "uint256"
        }
      ],
      "stateMutability": "view",
      "type": "function"
    },
    {
      "inputs": [],
      "name": "fetchMarketItems",
      "outputs": [
        {
          "components": [
            {
              "internalType": "uint256",
              "name": "tokenId",
              "type": "uint256"
            },
            {
              "internalType": "address",
              "name": "nftContract",
              "type": "address"
            },
            {
              "internalType": "uint256",
              "name": "price",
              "type": "uint256"
            },
            {
              "internalType": "address payable",
              "name": "owner",
              "type": "address"
            },
            {
              "internalType": "bool",
              "name": "flag",
              "type": "bool"
            }
          ],
          "internalType": "struct Ecommerce.MarketItem[]",
          "name": "",
          "type": "tuple[]"
        }
      ],
      "stateMutability": "view",
      "type": "function"
    },
    {
      "inputs": [],
      "name": "fetchMintFee",
      "outputs": [
        {
          "internalType": "uint256",
          "name": "",
          "type": "uint256"
        }
      ],
      "stateMutability": "view",
      "type": "function"
    },
    {
      "inputs": [],
      "name": "fetchPurchasedItems",
      "outputs": [
        {
          "components": [
            {
              "internalType": "uint256",
              "name": "tokenId",
              "type": "uint256"
            },
            {
              "internalType": "address",
              "name": "nftContract",
              "type": "address"
            },
            {
              "internalType": "uint256",
              "name": "price",
              "type": "uint256"
            },
            {
              "internalType": "address payable",
              "name": "owner",
              "type": "address"
            },
            {
              "internalType": "bool",
              "name": "flag",
              "type": "bool"
            }
          ],
          "internalType": "struct Ecommerce.MarketItem[]",
          "name": "",
          "type": "tuple[]"
        }
      ],
      "stateMutability": "view",
      "type": "function"
    },
    {
      "inputs": [
        {
          "internalType": "address",
          "name": "userAddress",
          "type": "address"
        }
      ],
      "name": "isManufacturer",
      "outputs": [
        {
          "internalType": "bool",
          "name": "",
          "type": "bool"
        }
      ],
      "stateMutability": "view",
      "type": "function"
    },
    {
      "inputs": [
        {
          "internalType": "address",
          "name": "nftContractAddress",
          "type": "address"
        },
        {
          "internalType": "uint256",
          "name": "tokenId",
          "type": "uint256"
        },
        {
          "internalType": "uint256",
          "name": "price",
          "type": "uint256"
        }
      ],
      "name": "listMarketItem",
      "outputs": [
        {
          "internalType": "uint256",
          "name": "",
          "type": "uint256"
        }
      ],
      "stateMutability": "payable",
      "type": "function"
    },
    {
      "inputs": [
        {
          "internalType": "uint256",
          "name": "itemId",
          "type": "uint256"
        }
      ],
      "name": "reportNotReceiveMarketItem",
      "outputs": [],
      "stateMutability": "nonpayable",
      "type": "function"
    },
    {
      "inputs": [
        {
          "internalType": "address",
          "name": "userAddress",
          "type": "address"
        }
      ],
      "name": "signUpNewManufacturer",
      "outputs": [],
      "stateMutability": "nonpayable",
      "type": "function"
    },
    {
      "inputs": [],
      "name": "signUpNewUser",
      "outputs": [],
      "stateMutability": "nonpayable",
      "type": "function"
    },
    {
      "inputs": [
        {
          "internalType": "uint256",
          "name": "itemId",
          "type": "uint256"
        }
      ],
      "name": "unlistMarketItem",
      "outputs": [],
      "stateMutability": "nonpayable",
      "type": "function"
    }
  ],
  "transactionHash": "0xf17ea4c7224dad772d40394a217307c34cd92d7f7b580b8bf8810a3faa5230cf",
  "args": [],
  "numDeployments": 1,
  "solcInputHash": "3d323a62142aa03e9efd37e8bc037375",
  "bytecode": "0x60e060405234801561001057600080fd5b5060016000819055503373ffffffffffffffffffffffffffffffffffffffff1660808173ffffffffffffffffffffffffffffffffffffffff1681525050660aa87bee53800060a08181525050661550f7dca7000060c08181525050600060028190555060805160a05160c051612dde6100b76000396000611dc40152600081816106000152818161077e01526117b601526000818161074701526124fd0152612dde6000f3fe6080604052600436106100c25760003560e01c806344e7877a1161007f5780636b89e153116100595780636b89e153146102385780639712654c14610263578063cfd31e2c1461028e578063d57fd0d9146102b9576100c2565b806344e7877a146101bb57806350ad68c6146101e45780635650484f1461020f576100c2565b80630f08efe0146100c757806317d4a491146100f2578063213c4e1a1461012f5780632916b2dc1461015f578063326ec531146101885780633c68b8e4146101a4575b600080fd5b3480156100d357600080fd5b506100dc6102e2565b6040516100e99190612980565b60405180910390f35b3480156100fe57600080fd5b50610119600480360381019061011491906129d3565b6104c0565b6040516101269190612a0f565b60405180910390f35b61014960048036038101906101449190612a56565b610516565b6040516101569190612ab8565b60405180910390f35b34801561016b57600080fd5b5061018660048036038101906101819190612ad3565b6109ee565b005b6101a2600480360381019061019d9190612ad3565b610e9b565b005b3480156101b057600080fd5b506101b961129d565b005b3480156101c757600080fd5b506101e260048036038101906101dd9190612ad3565b611460565b005b3480156101f057600080fd5b506101f96117b2565b6040516102069190612ab8565b60405180910390f35b34801561021b57600080fd5b5061023660048036038101906102319190612ad3565b6117da565b005b34801561024457600080fd5b5061024d611dc0565b60405161025a9190612ab8565b60405180910390f35b34801561026f57600080fd5b50610278611de8565b6040516102859190612980565b60405180910390f35b34801561029a57600080fd5b506102a3612112565b6040516102b09190612980565b60405180910390f35b3480156102c557600080fd5b506102e060048036038101906102db91906129d3565b6124fb565b005b606060006102f060016126f9565b905060008060025467ffffffffffffffff81111561031157610310612b00565b5b60405190808252806020026020018201604052801561034a57816020015b610337612776565b81526020019060019003908161032f5790505b50905060005b838110156104b6576003600082815260200190815260200160002060030160149054906101000a900460ff16156104a557600360008281526020019081526020016000206040518060a0016040529081600082015481526020016001820160009054906101000a900473ffffffffffffffffffffffffffffffffffffffff1673ffffffffffffffffffffffffffffffffffffffff1673ffffffffffffffffffffffffffffffffffffffff168152602001600282015481526020016003820160009054906101000a900473ffffffffffffffffffffffffffffffffffffffff1673ffffffffffffffffffffffffffffffffffffffff1673ffffffffffffffffffffffffffffffffffffffff1681526020016003820160149054906101000a900460ff16151515158152505082848061048690612b5e565b95508151811061049957610498612ba6565b5b60200260200101819052505b806104af90612b5e565b9050610350565b5080935050505090565b6000600560008373ffffffffffffffffffffffffffffffffffffffff1673ffffffffffffffffffffffffffffffffffffffff16815260200190815260200160002060009054906101000a900460ff169050919050565b6000610520612707565b600560003373ffffffffffffffffffffffffffffffffffffffff1673ffffffffffffffffffffffffffffffffffffffff16815260200190815260200160002060009054906101000a900460ff161580156105c75750600460003373ffffffffffffffffffffffffffffffffffffffff1673ffffffffffffffffffffffffffffffffffffffff16815260200190815260200160002060030160009054906101000a900460ff16155b156105fe576040517f418c86b500000000000000000000000000000000000000000000000000000000815260040160405180910390fd5b7f00000000000000000000000000000000000000000000000000000000000000003414610657576040517fb7635dc000000000000000000000000000000000000000000000000000000000815260040160405180910390fd5b3373ffffffffffffffffffffffffffffffffffffffff168473ffffffffffffffffffffffffffffffffffffffff16636352211e856040518263ffffffff1660e01b81526004016106a79190612ab8565b602060405180830381865afa1580156106c4573d6000803e3d6000fd5b505050506040513d601f19601f820116820180604052508101906106e89190612bea565b73ffffffffffffffffffffffffffffffffffffffff1614610735576040517f3c792b1300000000000000000000000000000000000000000000000000000000815260040160405180910390fd5b600061074160016126f9565b905060007f000000000000000000000000000000000000000000000000000000000000000073ffffffffffffffffffffffffffffffffffffffff167f00000000000000000000000000000000000000000000000000000000000000006040516107a990612c48565b60006040518083038185875af1925050503d80600081146107e6576040519150601f19603f3d011682016040523d82523d6000602084013e6107eb565b606091505b5050905080610826576040517f9dc0a3bf00000000000000000000000000000000000000000000000000000000815260040160405180910390fd5b6040518060a001604052808681526020018773ffffffffffffffffffffffffffffffffffffffff1681526020018581526020013373ffffffffffffffffffffffffffffffffffffffff16815260200160011515815250600360008481526020019081526020016000206000820151816000015560208201518160010160006101000a81548173ffffffffffffffffffffffffffffffffffffffff021916908373ffffffffffffffffffffffffffffffffffffffff1602179055506040820151816002015560608201518160030160006101000a81548173ffffffffffffffffffffffffffffffffffffffff021916908373ffffffffffffffffffffffffffffffffffffffff16021790555060808201518160030160146101000a81548160ff02191690831515021790555090505061095e6001612756565b60026000815461096d90612b5e565b919050819055503373ffffffffffffffffffffffffffffffffffffffff168673ffffffffffffffffffffffffffffffffffffffff16867fecfc353a8b9b79a97f64e3465e57fa534d8a5d6e190fe31eb60acf4918a8b308876040516109d29190612ab8565b60405180910390a481925050506109e761276c565b9392505050565b6109f6612707565b6000600460003373ffffffffffffffffffffffffffffffffffffffff1673ffffffffffffffffffffffffffffffffffffffff16815260200190815260200160002090508060030160009054906101000a900460ff16610a81576040517f418c86b500000000000000000000000000000000000000000000000000000000815260040160405180910390fd5b60008160000160008481526020019081526020016000206040518060a0016040529081600082015481526020016001820160009054906101000a900473ffffffffffffffffffffffffffffffffffffffff1673ffffffffffffffffffffffffffffffffffffffff1673ffffffffffffffffffffffffffffffffffffffff168152602001600282015481526020016003820160009054906101000a900473ffffffffffffffffffffffffffffffffffffffff1673ffffffffffffffffffffffffffffffffffffffff1673ffffffffffffffffffffffffffffffffffffffff1681526020016003820160149054906101000a900460ff16151515158152505090508060800151610bbb576040517fbff9537800000000000000000000000000000000000000000000000000000000815260040160405180910390fd5b60008160400151905060003373ffffffffffffffffffffffffffffffffffffffff1682604051610bea90612c48565b60006040518083038185875af1925050503d8060008114610c27576040519150601f19603f3d011682016040523d82523d6000602084013e610c2c565b606091505b5050905080610c67576040517f9dc0a3bf00000000000000000000000000000000000000000000000000000000815260040160405180910390fd5b82600360008781526020019081526020016000206000820151816000015560208201518160010160006101000a81548173ffffffffffffffffffffffffffffffffffffffff021916908373ffffffffffffffffffffffffffffffffffffffff1602179055506040820151816002015560608201518160030160006101000a81548173ffffffffffffffffffffffffffffffffffffffff021916908373ffffffffffffffffffffffffffffffffffffffff16021790555060808201518160030160146101000a81548160ff021916908315150217905550905050600460003373ffffffffffffffffffffffffffffffffffffffff1673ffffffffffffffffffffffffffffffffffffffff16815260200190815260200160002060000160008681526020019081526020016000206000808201600090556001820160006101000a81549073ffffffffffffffffffffffffffffffffffffffff021916905560028201600090556003820160006101000a81549073ffffffffffffffffffffffffffffffffffffffff02191690556003820160146101000a81549060ff02191690555050600260008154610e1790612b5e565b91905081905550826060015173ffffffffffffffffffffffffffffffffffffffff163373ffffffffffffffffffffffffffffffffffffffff1684600001517f670623d28afc85f764a2cedc98f6c3a746da29ac7402e84186d742a9e900009985604051610e849190612ab8565b60405180910390a450505050610e9861276c565b50565b610ea3612707565b6000600460003373ffffffffffffffffffffffffffffffffffffffff1673ffffffffffffffffffffffffffffffffffffffff16815260200190815260200160002090506000600360008481526020019081526020016000206040518060a0016040529081600082015481526020016001820160009054906101000a900473ffffffffffffffffffffffffffffffffffffffff1673ffffffffffffffffffffffffffffffffffffffff1673ffffffffffffffffffffffffffffffffffffffff168152602001600282015481526020016003820160009054906101000a900473ffffffffffffffffffffffffffffffffffffffff1673ffffffffffffffffffffffffffffffffffffffff1673ffffffffffffffffffffffffffffffffffffffff1681526020016003820160149054906101000a900460ff16151515158152505090508160030160009054906101000a900460ff1661102b576040517f418c86b500000000000000000000000000000000000000000000000000000000815260040160405180910390fd5b8060800151611066576040517fbff9537800000000000000000000000000000000000000000000000000000000815260040160405180910390fd5b6000816040015190508034146110a8576040517fb7635dc000000000000000000000000000000000000000000000000000000000815260040160405180910390fd5b818360000160008681526020019081526020016000206000820151816000015560208201518160010160006101000a81548173ffffffffffffffffffffffffffffffffffffffff021916908373ffffffffffffffffffffffffffffffffffffffff1602179055506040820151816002015560608201518160030160006101000a81548173ffffffffffffffffffffffffffffffffffffffff021916908373ffffffffffffffffffffffffffffffffffffffff16021790555060808201518160030160146101000a81548160ff021916908315150217905550905050600360008581526020019081526020016000206000808201600090556001820160006101000a81549073ffffffffffffffffffffffffffffffffffffffff021916905560028201600090556003820160006101000a81549073ffffffffffffffffffffffffffffffffffffffff02191690556003820160146101000a81549060ff0219169055505060026000815461121a90612c5d565b91905081905550816060015173ffffffffffffffffffffffffffffffffffffffff163373ffffffffffffffffffffffffffffffffffffffff1683600001517f1b6155f3011488853d497add08f71b79f78b07c0711a89ed8a594de75f68657d846040516112879190612ab8565b60405180910390a450505061129a61276c565b50565b600460003373ffffffffffffffffffffffffffffffffffffffff1673ffffffffffffffffffffffffffffffffffffffff16815260200190815260200160002060030160009054906101000a900460ff16806113415750600560003373ffffffffffffffffffffffffffffffffffffffff1673ffffffffffffffffffffffffffffffffffffffff16815260200190815260200160002060009054906101000a900460ff165b15611378576040517fc9342c0e00000000000000000000000000000000000000000000000000000000815260040160405180910390fd5b6001600460003373ffffffffffffffffffffffffffffffffffffffff1673ffffffffffffffffffffffffffffffffffffffff16815260200190815260200160002060030160006101000a81548160ff0219169083151502179055506000600460003373ffffffffffffffffffffffffffffffffffffffff1673ffffffffffffffffffffffffffffffffffffffff168152602001908152602001600020600201819055503373ffffffffffffffffffffffffffffffffffffffff167fc5a5198774e054d1b60c78ab2a69ec1187fca9f638eb28c3f8ce440bdbd737ee60405160405180910390a2565b6000600360008381526020019081526020016000206040518060a0016040529081600082015481526020016001820160009054906101000a900473ffffffffffffffffffffffffffffffffffffffff1673ffffffffffffffffffffffffffffffffffffffff1673ffffffffffffffffffffffffffffffffffffffff168152602001600282015481526020016003820160009054906101000a900473ffffffffffffffffffffffffffffffffffffffff1673ffffffffffffffffffffffffffffffffffffffff1673ffffffffffffffffffffffffffffffffffffffff1681526020016003820160149054906101000a900460ff1615151515815250509050600560003373ffffffffffffffffffffffffffffffffffffffff1673ffffffffffffffffffffffffffffffffffffffff16815260200190815260200160002060009054906101000a900460ff161580156116045750600460003373ffffffffffffffffffffffffffffffffffffffff1673ffffffffffffffffffffffffffffffffffffffff16815260200190815260200160002060030160009054906101000a900460ff16155b1561163b576040517f418c86b500000000000000000000000000000000000000000000000000000000815260040160405180910390fd5b8060800151611676576040517fbff9537800000000000000000000000000000000000000000000000000000000815260040160405180910390fd5b806060015173ffffffffffffffffffffffffffffffffffffffff163373ffffffffffffffffffffffffffffffffffffffff16146116df576040517f3c792b1300000000000000000000000000000000000000000000000000000000815260040160405180910390fd5b600360008381526020019081526020016000206000808201600090556001820160006101000a81549073ffffffffffffffffffffffffffffffffffffffff021916905560028201600090556003820160006101000a81549073ffffffffffffffffffffffffffffffffffffffff02191690556003820160146101000a81549060ff0219169055505060026000815461177690612c5d565b9190508190555080600001517fd371e668750cb458fa9a55e99ade07ce913d63ab733d6e30fe303723e106cf9660405160405180910390a25050565b60007f0000000000000000000000000000000000000000000000000000000000000000905090565b6117e2612707565b600460003373ffffffffffffffffffffffffffffffffffffffff1673ffffffffffffffffffffffffffffffffffffffff16815260200190815260200160002060030160009054906101000a900460ff16611868576040517f418c86b500000000000000000000000000000000000000000000000000000000815260040160405180910390fd5b6000600460003373ffffffffffffffffffffffffffffffffffffffff1673ffffffffffffffffffffffffffffffffffffffff16815260200190815260200160002060000160008381526020019081526020016000206040518060a0016040529081600082015481526020016001820160009054906101000a900473ffffffffffffffffffffffffffffffffffffffff1673ffffffffffffffffffffffffffffffffffffffff1673ffffffffffffffffffffffffffffffffffffffff168152602001600282015481526020016003820160009054906101000a900473ffffffffffffffffffffffffffffffffffffffff1673ffffffffffffffffffffffffffffffffffffffff1673ffffffffffffffffffffffffffffffffffffffff1681526020016003820160149054906101000a900460ff161515151581525050905080608001516119e0576040517fbff9537800000000000000000000000000000000000000000000000000000000815260040160405180910390fd5b60008160200151905060008260600151905060008173ffffffffffffffffffffffffffffffffffffffff168460400151604051611a1c90612c48565b60006040518083038185875af1925050503d8060008114611a59576040519150601f19603f3d011682016040523d82523d6000602084013e611a5e565b606091505b5050905080611a99576040517f9dc0a3bf00000000000000000000000000000000000000000000000000000000815260040160405180910390fd5b8273ffffffffffffffffffffffffffffffffffffffff166323b872dd833387600001516040518463ffffffff1660e01b8152600401611ada93929190612cf4565b600060405180830381600087803b158015611af457600080fd5b505af1158015611b08573d6000803e3d6000fd5b50505050600460003373ffffffffffffffffffffffffffffffffffffffff1673ffffffffffffffffffffffffffffffffffffffff16815260200190815260200160002060000160008681526020019081526020016000206000808201600090556001820160006101000a81549073ffffffffffffffffffffffffffffffffffffffff021916905560028201600090556003820160006101000a81549073ffffffffffffffffffffffffffffffffffffffff02191690556003820160146101000a81549060ff0219169055505083600460003373ffffffffffffffffffffffffffffffffffffffff1673ffffffffffffffffffffffffffffffffffffffff16815260200190815260200160002060010160008781526020019081526020016000206000820151816000015560208201518160010160006101000a81548173ffffffffffffffffffffffffffffffffffffffff021916908373ffffffffffffffffffffffffffffffffffffffff1602179055506040820151816002015560608201518160030160006101000a81548173ffffffffffffffffffffffffffffffffffffffff021916908373ffffffffffffffffffffffffffffffffffffffff16021790555060808201518160030160146101000a81548160ff021916908315150217905550905050600460003373ffffffffffffffffffffffffffffffffffffffff1673ffffffffffffffffffffffffffffffffffffffff16815260200190815260200160002060020160008154611d3c90612b5e565b919050819055508173ffffffffffffffffffffffffffffffffffffffff163373ffffffffffffffffffffffffffffffffffffffff1685600001517f233575facae2443b4c2c2c5c2c58aea578d2619008e8a75ae1240519849cfa088760400151604051611da99190612ab8565b60405180910390a450505050611dbd61276c565b50565b60007f0000000000000000000000000000000000000000000000000000000000000000905090565b6060600460003373ffffffffffffffffffffffffffffffffffffffff1673ffffffffffffffffffffffffffffffffffffffff16815260200190815260200160002060030160009054906101000a900460ff16611e70576040517f418c86b500000000000000000000000000000000000000000000000000000000815260040160405180910390fd5b6000600460003373ffffffffffffffffffffffffffffffffffffffff1673ffffffffffffffffffffffffffffffffffffffff16815260200190815260200160002060020154905060008167ffffffffffffffff811115611ed357611ed2612b00565b5b604051908082528060200260200182016040528015611f0c57816020015b611ef9612776565b815260200190600190039081611ef15790505b5090506000611f1b60016126f9565b90506000805b8281101561210757600460003373ffffffffffffffffffffffffffffffffffffffff1673ffffffffffffffffffffffffffffffffffffffff168152602001908152602001600020600101600082815260200190815260200160002060030160149054906101000a900460ff16156120f657600460003373ffffffffffffffffffffffffffffffffffffffff1673ffffffffffffffffffffffffffffffffffffffff16815260200190815260200160002060010160008281526020019081526020016000206040518060a0016040529081600082015481526020016001820160009054906101000a900473ffffffffffffffffffffffffffffffffffffffff1673ffffffffffffffffffffffffffffffffffffffff1673ffffffffffffffffffffffffffffffffffffffff168152602001600282015481526020016003820160009054906101000a900473ffffffffffffffffffffffffffffffffffffffff1673ffffffffffffffffffffffffffffffffffffffff1673ffffffffffffffffffffffffffffffffffffffff1681526020016003820160149054906101000a900460ff1615151515815250508483806120d790612b5e565b9450815181106120ea576120e9612ba6565b5b60200260200101819052505b8061210090612b5e565b9050611f21565b508294505050505090565b6060600460003373ffffffffffffffffffffffffffffffffffffffff1673ffffffffffffffffffffffffffffffffffffffff16815260200190815260200160002060030160009054906101000a900460ff161580156121bb5750600560003373ffffffffffffffffffffffffffffffffffffffff1673ffffffffffffffffffffffffffffffffffffffff16815260200190815260200160002060009054906101000a900460ff16155b156121f2576040517f418c86b500000000000000000000000000000000000000000000000000000000815260040160405180910390fd5b6000806121ff60016126f9565b905060005b818110156122c0576003600082815260200190815260200160002060030160149054906101000a900460ff16801561229d57503373ffffffffffffffffffffffffffffffffffffffff166003600083815260200190815260200160002060030160009054906101000a900473ffffffffffffffffffffffffffffffffffffffff1673ffffffffffffffffffffffffffffffffffffffff16145b156122af57826122ac90612b5e565b92505b806122b990612b5e565b9050612204565b5060008267ffffffffffffffff8111156122dd576122dc612b00565b5b60405190808252806020026020018201604052801561231657816020015b612303612776565b8152602001906001900390816122fb5790505b5090506000805b838110156124f0576003600082815260200190815260200160002060030160149054906101000a900460ff1680156123b657503373ffffffffffffffffffffffffffffffffffffffff166003600083815260200190815260200160002060030160009054906101000a900473ffffffffffffffffffffffffffffffffffffffff1673ffffffffffffffffffffffffffffffffffffffff16145b156124df57600360008281526020019081526020016000206040518060a0016040529081600082015481526020016001820160009054906101000a900473ffffffffffffffffffffffffffffffffffffffff1673ffffffffffffffffffffffffffffffffffffffff1673ffffffffffffffffffffffffffffffffffffffff168152602001600282015481526020016003820160009054906101000a900473ffffffffffffffffffffffffffffffffffffffff1673ffffffffffffffffffffffffffffffffffffffff1673ffffffffffffffffffffffffffffffffffffffff1681526020016003820160149054906101000a900460ff1615151515815250508383806124c090612b5e565b9450815181106124d3576124d2612ba6565b5b60200260200101819052505b806124e990612b5e565b905061231d565b508194505050505090565b7f000000000000000000000000000000000000000000000000000000000000000073ffffffffffffffffffffffffffffffffffffffff163373ffffffffffffffffffffffffffffffffffffffff1614612580576040517f136b67f600000000000000000000000000000000000000000000000000000000815260040160405180910390fd5b600460008273ffffffffffffffffffffffffffffffffffffffff1673ffffffffffffffffffffffffffffffffffffffff16815260200190815260200160002060030160009054906101000a900460ff16806126245750600560008273ffffffffffffffffffffffffffffffffffffffff1673ffffffffffffffffffffffffffffffffffffffff16815260200190815260200160002060009054906101000a900460ff165b1561265b576040517fc9342c0e00000000000000000000000000000000000000000000000000000000815260040160405180910390fd5b6001600560008373ffffffffffffffffffffffffffffffffffffffff1673ffffffffffffffffffffffffffffffffffffffff16815260200190815260200160002060006101000a81548160ff0219169083151502179055508073ffffffffffffffffffffffffffffffffffffffff167f1e5749d8663315dd233f850232ef0ff4192ab8ea83e651ab8f2b8190fc0d965a60405160405180910390a250565b600081600001549050919050565b60026000540361274c576040517f08c379a000000000000000000000000000000000000000000000000000000000815260040161274390612d88565b60405180910390fd5b6002600081905550565b6001816000016000828254019250508190555050565b6001600081905550565b6040518060a0016040528060008152602001600073ffffffffffffffffffffffffffffffffffffffff16815260200160008152602001600073ffffffffffffffffffffffffffffffffffffffff1681526020016000151581525090565b600081519050919050565b600082825260208201905092915050565b6000819050602082019050919050565b6000819050919050565b612812816127ff565b82525050565b600073ffffffffffffffffffffffffffffffffffffffff82169050919050565b600061284382612818565b9050919050565b61285381612838565b82525050565b600061286482612818565b9050919050565b61287481612859565b82525050565b60008115159050919050565b61288f8161287a565b82525050565b60a0820160008201516128ab6000850182612809565b5060208201516128be602085018261284a565b5060408201516128d16040850182612809565b5060608201516128e4606085018261286b565b5060808201516128f76080850182612886565b50505050565b60006129098383612895565b60a08301905092915050565b6000602082019050919050565b600061292d826127d3565b61293781856127de565b9350612942836127ef565b8060005b8381101561297357815161295a88826128fd565b975061296583612915565b925050600181019050612946565b5085935050505092915050565b6000602082019050818103600083015261299a8184612922565b905092915050565b600080fd5b6129b081612838565b81146129bb57600080fd5b50565b6000813590506129cd816129a7565b92915050565b6000602082840312156129e9576129e86129a2565b5b60006129f7848285016129be565b91505092915050565b612a098161287a565b82525050565b6000602082019050612a246000830184612a00565b92915050565b612a33816127ff565b8114612a3e57600080fd5b50565b600081359050612a5081612a2a565b92915050565b600080600060608486031215612a6f57612a6e6129a2565b5b6000612a7d868287016129be565b9350506020612a8e86828701612a41565b9250506040612a9f86828701612a41565b9150509250925092565b612ab2816127ff565b82525050565b6000602082019050612acd6000830184612aa9565b92915050565b600060208284031215612ae957612ae86129a2565b5b6000612af784828501612a41565b91505092915050565b7f4e487b7100000000000000000000000000000000000000000000000000000000600052604160045260246000fd5b7f4e487b7100000000000000000000000000000000000000000000000000000000600052601160045260246000fd5b6000612b69826127ff565b91507fffffffffffffffffffffffffffffffffffffffffffffffffffffffffffffffff8203612b9b57612b9a612b2f565b5b600182019050919050565b7f4e487b7100000000000000000000000000000000000000000000000000000000600052603260045260246000fd5b600081519050612be4816129a7565b92915050565b600060208284031215612c0057612bff6129a2565b5b6000612c0e84828501612bd5565b91505092915050565b600081905092915050565b50565b6000612c32600083612c17565b9150612c3d82612c22565b600082019050919050565b6000612c5382612c25565b9150819050919050565b6000612c68826127ff565b915060008203612c7b57612c7a612b2f565b5b600182039050919050565b6000819050919050565b6000612cab612ca6612ca184612818565b612c86565b612818565b9050919050565b6000612cbd82612c90565b9050919050565b6000612ccf82612cb2565b9050919050565b612cdf81612cc4565b82525050565b612cee81612838565b82525050565b6000606082019050612d096000830186612cd6565b612d166020830185612ce5565b612d236040830184612aa9565b949350505050565b600082825260208201905092915050565b7f5265656e7472616e637947756172643a207265656e7472616e742063616c6c00600082015250565b6000612d72601f83612d2b565b9150612d7d82612d3c565b602082019050919050565b60006020820190508181036000830152612da181612d65565b905091905056fea2646970667358221220cb3285d7b5ea1ba5566b6bb1316a50202ab8fb60639d477599c20295ffc82c8764736f6c63430008120033",
  "devdoc": {
    "events": {
      "MarketItemMoveToPending(uint256,address,address,uint256)": {
        "details": "====Define all events===="
      }
    },
    "kind": "dev",
    "methods": {},
    "stateVariables": {
      "i_owner": {
        "details": "====Define the neccesarry variables===="
      }
    },
    "version": 1
  },
  "userdoc": {
    "kind": "user",
    "methods": {
      "confirmBuyMarketItem(uint256)": {
        "notice": "====Below are functions to change the state of the ecommerce===="
      },
      "fetchMarketItems()": {
        "notice": "====Below are view and pure functions===="
      }
    },
    "version": 1
  },
  "storageLayout": {
    "storage": [
      {
        "astId": 10,
        "contract": "contracts/Ecommerce.sol:Ecommerce",
        "label": "_status",
        "offset": 0,
        "slot": "0",
        "type": "t_uint256"
      },
      {
        "astId": 2902,
        "contract": "contracts/Ecommerce.sol:Ecommerce",
        "label": "s_itemIds",
        "offset": 0,
        "slot": "1",
        "type": "t_struct(Counter)1624_storage"
      },
      {
        "astId": 2908,
        "contract": "contracts/Ecommerce.sol:Ecommerce",
        "label": "s_itemNum",
        "offset": 0,
        "slot": "2",
        "type": "t_uint256"
      },
      {
        "astId": 2913,
        "contract": "contracts/Ecommerce.sol:Ecommerce",
        "label": "s_itemIdToMarketItem",
        "offset": 0,
        "slot": "3",
        "type": "t_mapping(t_uint256,t_struct(MarketItem)2821_storage)"
      },
      {
        "astId": 2918,
        "contract": "contracts/Ecommerce.sol:Ecommerce",
        "label": "s_userAddressToUser",
        "offset": 0,
        "slot": "4",
        "type": "t_mapping(t_address,t_struct(User)2810_storage)"
      },
      {
        "astId": 2922,
        "contract": "contracts/Ecommerce.sol:Ecommerce",
        "label": "s_manufacturerDoesExist",
        "offset": 0,
        "slot": "5",
        "type": "t_mapping(t_address,t_bool)"
      }
    ],
    "types": {
      "t_address": {
        "encoding": "inplace",
        "label": "address",
        "numberOfBytes": "20"
      },
      "t_address_payable": {
        "encoding": "inplace",
        "label": "address payable",
        "numberOfBytes": "20"
      },
      "t_bool": {
        "encoding": "inplace",
        "label": "bool",
        "numberOfBytes": "1"
      },
      "t_mapping(t_address,t_bool)": {
        "encoding": "mapping",
        "key": "t_address",
        "label": "mapping(address => bool)",
        "numberOfBytes": "32",
        "value": "t_bool"
      },
      "t_mapping(t_address,t_struct(User)2810_storage)": {
        "encoding": "mapping",
        "key": "t_address",
        "label": "mapping(address => struct Ecommerce.User)",
        "numberOfBytes": "32",
        "value": "t_struct(User)2810_storage"
      },
      "t_mapping(t_uint256,t_struct(MarketItem)2821_storage)": {
        "encoding": "mapping",
        "key": "t_uint256",
        "label": "mapping(uint256 => struct Ecommerce.MarketItem)",
        "numberOfBytes": "32",
        "value": "t_struct(MarketItem)2821_storage"
      },
      "t_struct(Counter)1624_storage": {
        "encoding": "inplace",
        "label": "struct Counters.Counter",
        "members": [
          {
            "astId": 1623,
            "contract": "contracts/Ecommerce.sol:Ecommerce",
            "label": "_value",
            "offset": 0,
            "slot": "0",
            "type": "t_uint256"
          }
        ],
        "numberOfBytes": "32"
      },
      "t_struct(MarketItem)2821_storage": {
        "encoding": "inplace",
        "label": "struct Ecommerce.MarketItem",
        "members": [
          {
            "astId": 2812,
            "contract": "contracts/Ecommerce.sol:Ecommerce",
            "label": "tokenId",
            "offset": 0,
            "slot": "0",
            "type": "t_uint256"
          },
          {
            "astId": 2814,
            "contract": "contracts/Ecommerce.sol:Ecommerce",
            "label": "nftContract",
            "offset": 0,
            "slot": "1",
            "type": "t_address"
          },
          {
            "astId": 2816,
            "contract": "contracts/Ecommerce.sol:Ecommerce",
            "label": "price",
            "offset": 0,
            "slot": "2",
            "type": "t_uint256"
          },
          {
            "astId": 2818,
            "contract": "contracts/Ecommerce.sol:Ecommerce",
            "label": "owner",
            "offset": 0,
            "slot": "3",
            "type": "t_address_payable"
          },
          {
            "astId": 2820,
            "contract": "contracts/Ecommerce.sol:Ecommerce",
            "label": "flag",
            "offset": 20,
            "slot": "3",
            "type": "t_bool"
          }
        ],
        "numberOfBytes": "128"
      },
      "t_struct(User)2810_storage": {
        "encoding": "inplace",
        "label": "struct Ecommerce.User",
        "members": [
          {
            "astId": 2800,
            "contract": "contracts/Ecommerce.sol:Ecommerce",
            "label": "unconfirmedNfts",
            "offset": 0,
            "slot": "0",
            "type": "t_mapping(t_uint256,t_struct(MarketItem)2821_storage)"
          },
          {
            "astId": 2805,
            "contract": "contracts/Ecommerce.sol:Ecommerce",
            "label": "boughtNfts",
            "offset": 0,
            "slot": "1",
            "type": "t_mapping(t_uint256,t_struct(MarketItem)2821_storage)"
          },
          {
            "astId": 2807,
            "contract": "contracts/Ecommerce.sol:Ecommerce",
            "label": "purchasedNftNum",
            "offset": 0,
            "slot": "2",
            "type": "t_uint256"
          },
          {
            "astId": 2809,
            "contract": "contracts/Ecommerce.sol:Ecommerce",
            "label": "flag",
            "offset": 0,
            "slot": "3",
            "type": "t_bool"
          }
        ],
        "numberOfBytes": "128"
      },
      "t_uint256": {
        "encoding": "inplace",
        "label": "uint256",
        "numberOfBytes": "32"
      }
    }
  }
}